:0F0CEF0054656D706572617475723A20002C0047
:100C2300E4FDFCC3ED9FEC9E5019C28CC28D758907
:100C330011758A87758CFFD28C308DFD0DBD000137
:030C43000C80E042
:010C4600228B
:100C4700C2847F327E00120C23D284E4F5867F06AD
:100C5700120C23A284E433FB7F2A120C237586FF30
:020C6700AF03D9
:010C69002268
:100CDC00C284EF64017002D2847F0A7E00120C235E
:030CEC00D284228D
:100CAB00C284D284E4F5867F01FE120C23A284E475
:0C0CBB0033FB7F04120C237586FFAF038F
:010CC700220A
:020BFE00A90745
:100C00007B01E4FAEAC39408748094805014E95B91
:100C100060047F018002E4FF120CDCEB25E0FB0A9C
:020C200080E270
:010C220022AF
:100BA700E4F9FAEAC3940874809480501D120CABE0
:100BB700EF600DA8027401088002C333D8FC42011C
:0C0BC7007F027E00120C230A80D9AF01CF
:010BD30022FF
:100C6A00E4F51AC3E51A940874809480500E120BA6
:100C7A00A7740A251AF8A607051A80E77F0A7E00D4
:030C8A00020C2336
:040BD400AB07AA06BB
:100BD8009000007C007D64AF03AE021208D0C3E52C
:100BE800829FE5839E500E758DFF758B87308FFD34
:050BF800C28FA380DEA6
:010BFD0022D5
:10096E00120A87120CC8E4FF120A04758911D28E7E
:10097E007BFF7A0C79EF120AD77F0C120A04120C45
:10098E00477FCC120BFE7F44120BFE7F307E75121A
:10099E000BD4120C477FCC120BFE7FBE120BFE1235
:1009AE000C6AE50AC313751400F515AE14FF7C002E
:1009BE007D0A1208E2EF2430FF120CA0AE14AF1520
:1009CE007C007D0A1208E2ED2430FF120CA07BFFA2
:1009DE007A0C79FC120AD7E50A540175F005A48544
:1009EE00F008F5092430FF120CA07F04120CA07F32
:0609FE0043120CA08083EF
:03080000FFE4FD15
:020803008D1F47
:10080500E48F28F527F526F525E52854F0FFE4FEC5
:10081500FDFC780C12095BEF241FFFE43EFEE43D6E
:10082500FDE43CFCC004C005C006C007E528540F24
:10083500FFE4FEFDFC780812095BD003D002D0016D
:10084500D000EB2FF524EA3EF523E93DF522E83CFF
:10085500F521E51F64017015E5242440F524E435F0
:1008650023F523E43522F522E43521F521E4F520AD
:10087500C3E5209418748094805036C296E52454BC
:1008850001FFE4FEFDFCFBFAF9F8C3120937700419
:10089500C2958002D295D296AF24AE23AD22AC216B
:1008A50078011209488F248E238D228C2105208002
:0108B500BF83
:0108B600221F
:0E0CFE00E4FFFE0FBF00010EEF64AF4E70F575
:010D0C0022C4
:0E0D0D00E4FFFE0FBF00010EBE0AF8BFFFF5A7
:010D1B0022B5
:100A870075B2017590FFE4F591F5B2439160120DCF
:100A97000D120D0DE4FD7F34120803120D0DE4FD58
:100AA7007F09120803120D0DE4FD7F3012080312AF
:100AB7000D0DE4FD7F0F120803120D0DE4FD7F01FC
:100AC700120803120D0DE4FD7F07120803020D0D36
:100CC800E4FD7F01120803120D0DE4FD7F0E1208EA
:040CD80003020CFE09
:100C8D00AB07AE29AF2A7C001208E28C298D2AEB26
:030C9D002430FF01
:0B0CA0007D01120803120CFE020CFE86
:060AD7008B1A8A1B891C2A
:100ADD00E4F51DAB1AAA1BA91C1208B7FFFD33952F
:100AED00E04D6033120CA07401251CF51CE4351B80
:100AFD00F51B051DE51D641470057F14120A04E530
:100B0D001D642870057F28120A04E51D643C70C31E
:070B1D007F3C120A0480BCBA
:010B240022AE
:020B6D008F2BCC
:100B6F00E52B75F06484FFE52B75F0648485F02B1D
:100B7F0074302FFF120CA0E52B75F00A84FFE52BC4
:100B8F0075F00A8485F02B74302FFF120CA074308F
:080B9F00252BF52BFF020CA031
:040B25008E298F2A5C
:100B29007C037DE81208E2AB07AE29AF2A7C037D7E
:100B3900E8120C95AE29AF2A7C007D641208E27D8B
:100B490064120C8DAE29AF2A7C007D0A1208E27D61
:100B59000A120C8D7430252AF52AE43529F529AFB6
:040B69002A020CA0B0
:100A04008F1EE51E75F0508485F01EC3E51E9414F8
:100A1400748094805007E51E2480120800AF1E7E67
:100A240000C3EF9414748094804010EF9428748071
:100A340094805007E51E248C120800AF1E7E00C36C
:100A4400EF9428748094804013EF943C74809480D5
:100A5400500AE51E2498FFE4FD120803AF1E7E0031
:100A6400C3EF943C748094804013EF94507480944A
:100A740080500AE51E24A4FFE4FD120803120CFEB4
:030A8400020CFE63
:03000000020D1CD2
:0C0D1C00787FE4F6D8FD75812B02096E8B
:1008B700BB010689828A83E0225002E722BBFE023F
:0908C700E32289828A83E4932272
:1008D000EF8DF0A4A8F0CF8CF0A428CE8DF0A42E3C
:0208E000FE22F6
:1008E200BC000BBE0029EF8DF084FFADF022E4CCFA
:1008F200F875F008EF2FFFEE33FEEC33FCEE9DECC3
:10090200984005FCEE9DFE0FD5F0E9E4CEFD22ED08
:10091200F8F5F0EE8420D21CFEADF075F008EF2F52
:10092200FFED33FD4007985006D5F0F222C398FD43
:050932000FD5F0EA22E0
:10093700EB9FF5F0EA9E42F0E99D42F0E89C45F016
:01094700228D
:10094800E8600FECC313FCED13FDEE13FEEF13FF8D
:03095800D8F122B1
:10095B00E8600FEFC333FFEE33FEED33FDEC33FCFA
:03096B00D8F1229E
:00000001FF
